:100C5E00C2A58F807F0A7E00120C6FD2A67F147EF3
:010C6E000085
:100C6F00D3EF9400EE940040147D137C00ED1D70C3
:0D0C7F00011CED4C70F7EF1F70E61E80E3C6
:010C8C002245
:090DBB007F647E00120C6F7F388A
:0A0DC400C2A6C2A4120C5EC2A62251
:0A0E3F00C2A6D2A4120C5EC2A622C5
:100CD7007F2C7E01120DBF120DBB120DBB7F0812B8
:100CE7000DC47F01120DC47F06120DC47F0C020DC7
:010CF700C438
:100DCE003A83126F3B449BA63F0000003C23D70A98
:010DDE000113
:100C290044003800000000440008000000005000A3
:100C3900100000000000000000000000000000009B
:100C4900005000243F800000000000000000000068
:040C59003F800000D8
:0C0E0C007F04AE071FEE6004000080F6BB
:010E180022B7
:0F0DEF00D2A0D2A1120E0CC2A0120E0CC2A122D1
:0C0E3300C2A0D2A1120E0CD2A0020E0C24
:0E0DFE00A20092A0D2A1120E0CC2A1020E0CF5
:0D0E1900D2A1120E0CA2A0C2A1120E0C223A
:020D5300AD07EA
:100D5500E4FCED25E0FD92A0D2A1120E0CC2A11279
:090D65000E0C0CBC08EC020E1986
:100CF800E4FDD2A0FCED25E0FDD2A1120E0CA2A0CD
:0F0D0800E4334205C2A1120E0C0CBC08E8AF0583
:010D170022B9
:100D8900AB05AA07120DEF7FD0120D53AF02120D5A
:090D990053AF03120D53020E3397
:020C8D00AB07B3
:100C8F00120DEF7FD0120D53AF03120D53120DEF54
:100C9F007FD1120D53120CF8AD07D200120DFE12B8
:040CAF000E33AF054C
:010CB300221E
:100CB400E4FD7F6B120D897D077F19120D897D0676
:100CC4007F1A120D897D187F1B120D897D017F1CEF
:030CD400020D8985
:020D6E00AA07D2
:100D7000120C8D8F82EA04FF120C8DAD07E582FE06
:080D80007C00E42DFFEC3EFEB7
:010D88002248
:0C0E2600E4FFE4FE0EBE21FC0FBF0AF644
:010E3200229D
:020DDF00AD075E
:0D0DE100E4FCECC39D5006120E260C80F5BC
:010DEE0022E2
:060B3F008B088A09890AF7
:100B4500E4F50CF50DEF24FE600F1460111460132D
:100B550024037012750B80800D750B908008750B42
:100B6500888003750B98E50B2D14F50BFF120DC44A
:100B7500AB08AA09A90A850D82850C83120811FF05
:0F0B8500600D120E3F050DE50D70E5050C80E1CA
:010B9400223E
:060A0C007B007A0079383E
:100A12008B128A1389148C158D16C3E51564809484
:100A220080500FC3E49516F516E49515F515742D4F
:100A32008008AB12AA13A914742012083EAE15AF97
:100A4200167C007D64120850EF2430FFAB120514AF
:100A5200E51470020513F9AA13EF12083EAE15AFA2
:100A6200167C007D641208508C158D16AE15AF16DB
:100A72007C007D0A120850EF2430FFAB120514E50A
:100A82001470020513F9AA13EF12083EAE15AF1641
:100A92007C007D0A1208508C158D16E5162430FF55
:100AA200AB120514E51470020513F9AA13EF02083C
:010AB2003E05
:100DA2008B1A53050153070FED60034307404307B6
:090DB20080120DC4AF1A020E3FBD
:0A0BEB008F128D138B148A158916E2
:100BF500E4F51953130153120FE5181518AE1770C4
:100C05000215174E601DAB14AA15A9168519827514
:100C15008300120811FBAD13AF12120DA2051905C1
:030C25001280D664
:010C280022A9
:100D18008D108B11AD07AC06120A0C7B007A007996
:0E0D280038751700751804AD11AF10020BEBF3
:100003008F0B8E0A8D098C08AB43AA42A941A840E5
:10001300C000C001C002C003900038E0F8A3E0F9BB
:10002300A3E0FAA3E0FBAF0FAE0EAD0DAC0C1204D0
:10003300A6900DDA1208A412059BD003D002D001BA
:10004300D0001204AA8F438E428D418C4090002829
:10005300E0F8A3E0F9A3E0FAA3E0FB900DCE1208C9
:10006300941204A690002CE0F8A3E0F9A3E0FAA30D
:10007300E0FB1204A69000101208B4900030E0FCDC
:10008300A3E0FDA3E0FEA3E0FF12074190001412DA
:1000930008B4900030E0FCA3E0FDA3E0FEA3E0FF82
:1000A3001207419000181208B4900DD212089490D0
:1000B300001C1208B4900024E0F8A3E0F9A3E0FACE
:1000C300A3E0FBC000C001C002C003900DDA120818
:1000D30094900010E0F8A3E0F9A3E0FAA3E0FB1288
:1000E300059BD003D002D001D0001204AA900024B3
:1000F3001208B4900028E0F8A3E0F9A3E0FAA3E023
:10010300FBC000C001C002C003900DDA1208949036
:100113000014E0F8A3E0F9A3E0FAA3E0FB12059BC7
:10012300D003D002D001D0001204AA9000281208F4
:10013300B490002CE0F8A3E0F9A3E0FAA3E0FBC03D
:1001430000C001C002C003900DDA12089490001899
:10015300E0F8A3E0F9A3E0FAA3E0FB12059BD003C8
:10016300D002D001D0001204AA90002C1208B4903F
:100173000030E0F8A3E0F9A3E0FAA3E0FBC000C07D
:1001830001C002C003900DDA12089490001CE0F83D
:10019300A3E0F9A3E0FAA3E0FB12059BD003D0028E
:1001A300D001D0001204AA9000301208B4AB43AAC5
:1001B30042A941A840AF0BAE0AAD09AC081204A690
:1001C3009000081208B4900DDEE493FC12075C90D3
:1001D3000024E0F8A3E0F9A3E0FAA3E0FB12059BF7
:1001E30090000C1208B4900DDEE493FC12075C90AF
:1001F300002CE0F8A3E0F9A3E0FAA3E0FB12059BCF
:100203009000201208B4900DDEE493FC12075C907A
:10021300000CE0F8A3E0F9A3E0FAA3E0FB12059BCE
:10022300900DD61208A41204AA9000341208B490B8
:100233000034E0F8A3E0F9A3E0FAA3E0FB90000C9C
:10024300E0FCA3E0FDA3E0FEA3E0FF1206A4900000
:100253003C1208B4900034E0F8A3E0F9A3E0FAA359
:10026300E0FB900020E0FCA3E0FDA3E0FEA3E0FFA1
:100273001206A49000401208B490000CE0FCA3E026
:10028300FDA3E0FEA3E0FF9000001208B4900DDE92
:10029300E493FC12075C900028E0F8A3E0F9A3E0E4
:1002A300FAA3E0FB12059B9000041208B49000240B
:1002B300E0FCA3E0FDA3E0FEA3E0FFC004C005C093
:1002C30006C007900000E0FCA3E0FDA3E0FEA3E06E
:1002D300FF90003CE0F8A3E0F9A3E0FAA3E0FB12EF
:1002E300059BA804A905AA06AB07D007D006D0052D
:1002F300D0041204A69000241208B4900028E0FC55
:10030300A3E0FDA3E0FEA3E0FFC004C005C006C058
:1003130007900004E0FCA3E0FDA3E0FEA3E0FF9050
:10032300003CE0F8A3E0F9A3E0FAA3E0FB12059B8D
:10033300A804A905AA06AB07D007D006D005D004A8
:100343001204A69000281208B490002CE0FCA3E04D
:10035300FDA3E0FEA3E0FFC004C005C006C00790F4
:100363000000E0FCA3E0FDA3E0FEA3E0FF9000405B
:10037300E0F8A3E0F9A3E0FAA3E0FB12059BA804CD
:10038300A905AA06AB07D007D006D005D0041204EE
:10039300A690002C1208B4900030E0FCA3E0FDA36B
:1003A300E0FEA3E0FFC004C005C006C00790000440
:1003B300E0FCA3E0FDA3E0FEA3E0FF900040E0F833
:1003C300A3E0F9A3E0FAA3E0FB12059BA804A905A7
:1003D300AA06AB07D007D006D005D0041204A69016
:1003E30000301208B4AB43AA42A941A840C000C0E0
:1003F30001C002C003900008E0FCA3E0FDA3E0FEFF
:10040300A3E0FF90003CE0F8A3E0F9A3E0FAA3E047
:10041300FB12059BD003D002D001D0001204AA8F97
:10042300438E428D418C40900038E0F8A3E0F9A35D
:10043300E0FAA3E0FBC000C001C002C003900008C3
:10044300E0FCA3E0FDA3E0FEA3E0FF900040E0F8A2
:10045300A3E0F9A3E0FAA3E0FB12059BD003D002CB
:10046300D001D0001204AA9000381208B4900038CA
:10047300E0F8A3E0F9A3E0FAA3E0FBAF0FAE0EAD03
:100483000DAC0C1204A68F478E468D458C44AF43AA
:10049300AE42AD41AC401207907B017D01020D18C5
:100915007F3B120D6EAC06AD07EC1207578F338E79
:10092500328D318C30E4FBFA798078461206A48F3B
:10093500278E268D258C24E4FFFE7D877C43AB27FF
:10094500AA26A925A82412059B7BC37AF5794878A0
:10095500401206A48F278E268D258C241207907BA6
:10096500017D08120D187F3D120D6EAC06AD07EC2A
:100975001207578F378E368D358C34E4FBFA798024
:1009850078461206A48F2B8E2A8D298C28120741B2
:10099500E4FBFA7987784312059B7BC37AF579489E
:1009A50078401206A48F2B8E2A8D298C2812079049
:1009B5007B027D08120D187F45120D6EAC06AD0742
:1009C500EC1207578F478E468D458C44E4FFFE7D1C
:1009D500F07C41AB47AA46A945A8441204AA1207D0
:1009E500417B337A33798378411206A48F478E464B
:1009F5008D458C448F0F8E0E8D0D8C0CAF27AE263A
:070A0500AD25AC2402000343
:100B95007F41120C8D753C008F3D7F42120C8D7587
:100BA5003E008F3FE53D453EF521E53FF522AC2171
:100BB500AD22EC120757E4FBFA79AA78431206A492
:100BC5007BB87A1E791278421204AA1207908E21F8
:100BD5008F22AD22AC21120A0C7B007A0079387D78
:060BE500017F01020B3F3D
:100D36007FF4120DDF120CD77FF4120DDF120CB404
:0D0D46007FF4120DDF120915120B9580F8D5
:1004A3000207FCE86480F8E933E83360110460F084
:1004B300ED33EC337009E8FCE9FDEAFEEBFF2204BF
:1004C30060DED3EB9FEA9EE99DE8C2E78CF0C2F7BA
:1004D30095F0400CE8CCF8E9CDF9EACEFAEBCFFB86
:1004E3001207C785D0F05804700320D5B3E8047011
:1004F300075002B2D502080692D5EC0460F7E4CCAB
:10050300C0E0C398F8603B94186008400DD0E0FB4E
:100513000207DEE4FBFAC9FC8028E830E406E4C9FC
:10052300FBE4CAFCE830E305E4C9CACBFCE85407A2
:100533006010F8C3E913F9EA13FAEB13FBEC13FCAD
:10054300D8F130F52FC3E49CFCEF9BFFEE9AFEED50
:1005530099FDD0E0FBEF4E4D4C701222DB030208F5
:1005630003EC2CFCEF33FFEE33FEED33FDED30E710
:10057300EB0207DEEF2BFFEE3AFEED39FDD0E0FB99
:1005830050130BBB0003020806ED13FDEE13FEEF41
:0805930013FFEC13FC0207DE6C
:10059B00EC4D6011E8497017ED33EC3304600DE45A
:1005AB00FCFFFEFD22E933E8330470F80207FC126E
:1005BB0007C758046009E4CC24815006285009026F
:1005CB000806284003020803C0E0EB4A7044B980D8
:1005DB0006D0E0FB0207F2EF4E701CBD8008EBFF6C
:1005EB00EAFEE9FD80EBE98DF0A4FEE5F00206845E
:1005FB00E9CDF9EAFEEBFFEF89F0A4FCE5F0CE893B
:10060B00F0A42EFFE435F0CD89F0A42DFEE435F0F7
:10061B008067EF4E7005BD80D780C3EF8BF0A4AC25
:10062B00F0EE8BF0A42CFCE435F0F8EF8AF0A42C60
:10063B00E5F038FCE433CB8DF0A42CFCE5F03BF873
:10064B00EE8AF0A42CFCE5F038F8E433CF89F0A463
:10065B002CFCE5F038CF3400CE89F0A42FFFE5F069
:10066B003EFEE433C98DF0A42EFEE5F039CD8AF0C1
:10067B00A42FFFE5F03EFEE43DFD33D0E0FB500739
:10068B000BBB000F020806EC2CFCEF33FFEE33FE26
:06069B00ED33FD0207DE55
:1006A100020806EC5D046005E8590470030207FCCA
:1006B1001207C7580460F6EC4860F2EC7004FDFEC6
:1006C100FF22C860DB2481C85009C398600250062C
:1006D1000208039850CAF582E9294B4A7005AB829A
:1006E1000207F275F0007C1A7880C3EF9BEE9AED59
:1006F10099400DC3EF9BFFEE9AFEED99FDE842F0A4
:10070100DC23ACF0D0E0FFD0E0FED0E0FDAB8220F6
:10071100E7101BEB60BAEC2CFCEF33FFEE33FEED80
:1007210033FD0207DEE803F830E705C0F075F0009D
:10073100EF2FFFEE33FEED33FD40B830E7C280AA64
:10074100ED33EC33600A047003BD8004ECB2E7FCC6
:010751002285
:1007520075F020800E75F010800575F0087D007E22
:10076200007F003392D530D503120886EC33401057
:10077200EF33FFEE33FEED33FDEC33FCD5F0ED222B
:0E078200E5F0247EA2D513CC92E7CDCEFF2267
:10079000EDD2E7CD33EC3392D524814006E4FFFE61
:1007A000FDFC22FCE4CFCECDCC24E0501174FF80C0
:1007B000EDC3CC13CCCD13CDCE13CECF13CF04705D
:0707C000F030D5DE020886CF
:1007C700E9D2E7C933E833F892D5EDD2E7CD33EC78
:0707D70033FC5002B2D522F1
:1007DE00EC30E7100FBF000C0EBE00080DBD00047C
:1007EE000BEB6014A2D5EB13FCED92E7FD2274FF28
:1007FE00FCFDFEFF22E480F8A2D574FF13FC7D8081
:03080E00E480EF94
:03000000020AB33E
:0C0AB300787FE4F6D8FD758147020AFA4E
:10081100BB010CE58229F582E5833AF583E022509C
:1008210006E92582F8E622BBFE06E92582F8E222E6
:0D083100E58229F582E5833AF583E4932200
:10083E00BB010689828A83F0225002F722BBFE0199
:02084E00F32293
:10085000C2D5EC30E709B2D5E4C39DFDE49CFCEEC3
:1008600030E715B2D5E4C39FFFE49EFE1208C0C373
:10087000E49DFDE49CFC80031208C030D507C3E46E
:060880009FFFE49EFE2232
:0E088600C3E49FFFE49EFEE49DFDE49CFC2283
:10089400E493FC740193FD740293FE740393FF22AA
:1008A400E493F8740193F9740293FA740393FB22AA
:0C08B400ECF0A3EDF0A3EEF0A3EFF022B7
:100ABF00020D36E493A3F8E493A34003F68001F20A
:100ACF0008DFF48029E493A3F85407240CC8C33338
:100ADF00C4540F4420C8834004F456800146F6DF07
:100AEF00E4800B0102040810204080900C29E47E62
:100AFF00019360BCA3FF543F30E509541FFEE493FC
:100B0F00A360010ECF54C025E060A840B8E493A3C2
:100B1F00FAE493A3F8E493A3C8C582C8CAC583CAED
:100B2F00F0A3C8C582C8CAC583CADFE9DEE780BEA5
:010C5D000096
:1008C000BC000BBE0029EF8DF084FFADF022E4CC1C
:1008D000F875F008EF2FFFEE33FEEC33FCEE9DECE5
:1008E000984005FCEE9DFE0FD5F0E9E4CEFD22ED2B
:1008F000F8F5F0EE8420D21CFEADF075F008EF2F75
:10090000FFED33FD4007985006D5F0F222C398FD65
:050910000FD5F0EA2202
:00000001FF
