:100D71003A83126F3B449BA63F0000003C23D70AF5
:010D81000170
:100C30005000100000000000000000000000000054
:100C40000000005000243F80000000000000000071
:060C500000003F800000DF
:0C0DAF007F04AE071FEE6004000080F619
:010DBB002215
:0F0D9200D2A0D2A1120DAFC2A0120DAFC2A122EA
:0C0DD600C2A0D2A1120DAFD2A0020DAF3E
:0E0DA100A20092A0D2A1120DAFC2A1020DAF0E
:0D0DBC00D2A1120DAFA2A0C2A1120DAF2254
:020CF600AD0748
:100CF800E4FCED25E0FD92A0D2A1120DAFC2A11235
:090D08000DAF0CBC08EC020DBC9F
:100C9B00E4FDD2A0FCED25E0FDD2A1120DAFA2A088
:0F0CAB00E4334205C2A1120DAF0CBC08E8AF053F
:010CBA002217
:100D2C00AB05AA07120D927FD0120CF6AF02120C73
:090D3C00F6AF03120CF6020DD60D
:020C0900AB0737
:100C0B00120D927FD0120CF6AF03120CF6120D924E
:100C1B007FD1120CF6120C9BAD07D200120DA11254
:040C2B000DD6AF052E
:010C2F0022A2
:100C5700E4FD7F6B120D2C7D077F19120D2C7D068D
:100C67007F1A120D2C7D187F1B120D2C7D017F1C06
:030C7700020D2C3F
:020D1100AA072F
:100D1300120C098F82EA04FF120C09AD07E582FE6B
:080D23007C00E42DFFEC3EFE14
:010D2B0022A5
:0C0DC900E4FFE4FE0EBE21FC0FBF0AF6A2
:010DD50022FB
:020D8200AD07BB
:0D0D8400E4FCECC39D5006120DC90C80F577
:010D9100223F
:060AF0008B088A09890A47
:100AF600E4F50CF50DEF24FE600F1460111460137D
:100B060024037012750B80800D750B908008750B91
:100B1600888003750B98E50B2D14F50BFF120D67F6
:100B2600AB08AA09A90A850D82850C83120800FF65
:0F0B3600600D120DE2050DE50D70E5050C80E177
:010B4500228D
:0609BD007B007A00793096
:1009C3008B168A1789188C198D1AC3E519648094BC
:1009D30080500FC3E4951AF51AE49519F519742D8F
:1009E3008008AB16AA17A918742012082DAE19AFE8
:1009F3001A7C007D6412083FEF2430FFAB16051804
:100A0300E51870020517F9AA17EF12082DAE19AFF2
:100A13001A7C007D6412083F8C198D1AAE19AF1A27
:100A23007C007D0A12083FEF2430FFAB160518E562
:100A33001870020517F9AA17EF12082DAE19AF1A8D
:100A43007C007D0A12083F8C198D1AE51A2430FFA9
:100A5300AB160518E51870020517F9AA17EF020877
:010A63002D65
:100D45008B1E53050153070FED600343074043070F
:090D550080120D67AF1E020DE2D1
:0A0B9C008F168D178B188A19891A1D
:100BA600E4F51D53170153160FE51C151CAE1B70FB
:100BB60002151B4E601DAB18AA19A91A851D827550
:100BC6008300120800FBAD17AF16120D45051D0573
:030BD6001680D6B0
:010BD90022F9
:100CBB008D148B15AD07AC061209BD7B007A00793C
:0E0CCB0030751B00751C04AD15AF14020B9C98
:100003008F178E168D158C14AB3BAA3AA939A838D5
:10001300C000C001C002C003900038E0F8A3E0F9BB
:10002300A3E0FAA3E0FBAF1BAE1AAD19AC181204A0
:1000330095900D7D12089312058AD003D002D0014A
:10004300D0001204998F3B8E3A8D398C389000285A
:10005300E0F8A3E0F9A3E0FAA3E0FB900D71120826
:100063008312049590002CE0F8A3E0F9A3E0FAA32F
:10007300E0FB1204959000101208A3900030E0FCFE
:10008300A3E0FDA3E0FEA3E0FF12073090001412EB
:1000930008A3900030E0FCA3E0FDA3E0FEA3E0FF93
:1000A3001207309000181208A3900D751208839060
:1000B300001C1208A3900024E0F8A3E0F9A3E0FADF
:1000C300A3E0FBC000C001C002C003900D7D120875
:1000D30083900010E0F8A3E0F9A3E0FAA3E0FB1299
:1000E300058AD003D002D001D000120499900024D5
:1000F3001208A3900028E0F8A3E0F9A3E0FAA3E034
:10010300FBC000C001C002C003900D7D12088390A4
:100113000014E0F8A3E0F9A3E0FAA3E0FB12058AD8
:10012300D003D002D001D000120499900028120805
:10013300A390002CE0F8A3E0F9A3E0FAA3E0FBC04E
:1001430000C001C002C003900D7D12088390001807
:10015300E0F8A3E0F9A3E0FAA3E0FB12058AD003D9
:10016300D002D001D00012049990002C1208A39061
:100173000030E0F8A3E0F9A3E0FAA3E0FBC000C07D
:1001830001C002C003900D7D12088390001CE0F8AB
:10019300A3E0F9A3E0FAA3E0FB12058AD003D0029F
:1001A300D001D0001204999000301208A3AB3BAAEF
:1001B3003AA939A838AF17AE16AD15AC1412049589
:1001C3009000081208A3900D81E493FC12074B9052
:1001D3000024E0F8A3E0F9A3E0FAA3E0FB12058A08
:1001E30090000C1208A3900D81E493FC12074B902E
:1001F300002CE0F8A3E0F9A3E0FAA3E0FB12058AE0
:100203009000201208A3900D81E493FC12074B90F9
:10021300000CE0F8A3E0F9A3E0FAA3E0FB12058ADF
:10022300900D791208931204999000341208A39048
:100233000034E0F8A3E0F9A3E0FAA3E0FB90000C9C
:10024300E0FCA3E0FDA3E0FEA3E0FF120693900011
:100253003C1208A3900034E0F8A3E0F9A3E0FAA36A
:10026300E0FB900020E0FCA3E0FDA3E0FEA3E0FFA1
:100273001206939000401208A390000CE0FCA3E048
:10028300FDA3E0FEA3E0FF9000001208A3900D8100
:10029300E493FC12074B900028E0F8A3E0F9A3E0F5
:1002A300FAA3E0FB12058A9000041208A39000242D
:1002B300E0FCA3E0FDA3E0FEA3E0FFC004C005C093
:1002C30006C007900000E0FCA3E0FDA3E0FEA3E06E
:1002D300FF90003CE0F8A3E0F9A3E0FAA3E0FB12EF
:1002E300058AA804A905AA06AB07D007D006D0053E
:1002F300D0041204959000241208A3900028E0FC77
:10030300A3E0FDA3E0FEA3E0FFC004C005C006C058
:1003130007900004E0FCA3E0FDA3E0FEA3E0FF9050
:10032300003CE0F8A3E0F9A3E0FAA3E0FB12058A9E
:10033300A804A905AA06AB07D007D006D005D004A8
:100343001204959000281208A390002CE0FCA3E06F
:10035300FDA3E0FEA3E0FFC004C005C006C00790F4
:100363000000E0FCA3E0FDA3E0FEA3E0FF9000405B
:10037300E0F8A3E0F9A3E0FAA3E0FB12058AA804DE
:10038300A905AA06AB07D007D006D005D0041204EE
:100393009590002C1208A3900030E0FCA3E0FDA38D
:1003A300E0FEA3E0FFC004C005C006C00790000440
:1003B300E0FCA3E0FDA3E0FEA3E0FF900040E0F833
:1003C300A3E0F9A3E0FAA3E0FB12058AA804A905B8
:1003D300AA06AB07D007D006D005D0041204959027
:1003E30000301208A3AB3BAA3AA939A838C000C011
:1003F30001C002C003900008E0FCA3E0FDA3E0FEFF
:10040300A3E0FF90003CE0F8A3E0F9A3E0FAA3E047
:10041300FB12058AD003D002D001D0001204998FB9
:100423003B8E3A8D398C38900038E0F8A3E0F9A37D
:10043300E0FAA3E0FBC000C001C002C003900008C3
:10044300E0FCA3E0FDA3E0FEA3E0FF900040E0F8A2
:10045300A3E0F9A3E0FAA3E0FB12058AD003D002DC
:10046300D001D0001204999000381208A3900038EC
:10047300E0F8A3E0F9A3E0FAA3E0FBAF1BAE1AADEB
:0F04830019AC181204958F3F8E3E8D3D8C3C2294
:100904007F3B120D11AC06AD07EC1207468F0F8E1C
:100914000E8D0D8C0C7F007E807D897CC4AB0FAA6C
:100924000EA90DA80C120499E4FBFA7980784612FA
:1009340006938F138E128D118C10E4FFFE7D7C7C48
:1009440043AB13AA12A911A81012058A7BC37AF526
:10095400794878401206938F138E128D118C107F74
:1009640045120D11AC06AD07EC1207468F0B8E0A2B
:100974008D098C08E4FFFE7DF07C41AB0BAA0AA92B
:1009840009A8081204991207307B337A33798378E3
:10099400411206938F0B8E0A8D098C088F1B8E1AB9
:1009A4008D198C18AF13AE12AD11AC1012000312D6
:0909B400077F7B017D02020CBBF0
:100B46007F41120C097534008F357F42120C0975EE
:100B560036008F37E5354536F521E537F522AC21E8
:100B6600AD22EC120746E4FBFA79AA784312069303
:100B76007BB87A1E7912784212049912077F8E2169
:100B86008F22AD22AC211209BD7B007A0079307D1F
:060B9600017F01020AF0DC
:100CD9007FF4120D82120C7A7FF4120D82120C57D6
:0D0CE9007FF4120D82120904120B4680F8F0
:100BDA00C2A58F807F0A7E00120BEBD2A67F147EFD
:010BEA00000A
:100BEB00D3EF9400EE940040147D137C00ED1D7048
:0D0BFB00011CED4C70F7EF1F70E61E80E34B
:010C080022C9
:090D5E007F647E00120BEB7F386C
:0A0D6700C2A6C2A4120BDAC2A62233
:0A0DE200C2A6D2A4120BDAC2A622A8
:100C7A007F2C7E01120D62120D5E120D5E7F08122C
:100C8A000D677F01120D677F06120D677F0C020D3B
:010C9A0067F2
:100492000207EBE86480F8E933E83360110460F0A6
:1004A200ED33EC337009E8FCE9FDEAFEEBFF2204D0
:1004B20060DED3EB9FEA9EE99DE8C2E78CF0C2F7CB
:1004C20095F0400CE8CCF8E9CDF9EACEFAEBCFFB97
:1004D2001207B685D0F05804700320D5B3E8047033
:1004E200075002B2D50207F592D5EC0460F7E4CCCE
:1004F200C0E0C398F8603B94186008400DD0E0FB60
:100502000207CDE4FBFAC9FC8028E830E406E4C91E
:10051200FBE4CAFCE830E305E4C9CACBFCE85407B3
:100522006010F8C3E913F9EA13FAEB13FBEC13FCBE
:10053200D8F130F52FC3E49CFCEF9BFFEE9AFEED61
:1005420099FDD0E0FBEF4E4D4C701222DB03020707
:10055200F2EC2CFCEF33FFEE33FEED33FDED30E732
:10056200EB0207CDEF2BFFEE3AFEED39FDD0E0FBBB
:1005720050130BBB00030207F5ED13FDEE13FEEF64
:0805820013FFEC13FC0207CD8E
:10058A00EC4D6011E8497017ED33EC3304600DE46B
:10059A00FCFFFEFD22E933E8330470F80207EB1290
:1005AA0007B658046009E4CC248150062850090291
:1005BA0007F52840030207F2C0E0EB4A7044B9800D
:1005CA0006D0E0FB0207E1EF4E701CBD8008EBFF8E
:1005DA00EAFEE9FD80EBE98DF0A4FEE5F002067380
:1005EA00E9CDF9EAFEEBFFEF89F0A4FCE5F0CE894C
:1005FA00F0A42EFFE435F0CD89F0A42DFEE435F009
:10060A008067EF4E7005BD80D780C3EF8BF0A4AC36
:10061A00F0EE8BF0A42CFCE435F0F8EF8AF0A42C71
:10062A00E5F038FCE433CB8DF0A42CFCE5F03BF884
:10063A00EE8AF0A42CFCE5F038F8E433CF89F0A474
:10064A002CFCE5F038CF3400CE89F0A42FFFE5F07A
:10065A003EFEE433C98DF0A42EFEE5F039CD8AF0D2
:10066A00A42FFFE5F03EFEE43DFD33D0E0FB50074A
:10067A000BBB000F0207F5EC2CFCEF33FFEE33FE49
:06068A00ED33FD0207CD77
:100690000207F5EC5D046005E8590470030207EBFE
:1006A0001207B6580460F6EC4860F2EC7004FDFEE8
:1006B000FF22C860DB2481C85009C398600250063D
:1006C0000207F29850CAF582E9294B4A7005AB82BD
:1006D0000207E175F0007C1A7880C3EF9BEE9AED7B
:1006E00099400DC3EF9BFFEE9AFEED99FDE842F0B5
:1006F000DC23ACF0D0E0FFD0E0FED0E0FDAB822008
:10070000E7101BEB60BAEC2CFCEF33FFEE33FEED91
:1007100033FD0207CDE803F830E705C0F075F000BF
:10072000EF2FFFEE33FEED33FD40B830E7C280AA75
:10073000ED33EC33600A047003BD8004ECB2E7FCD7
:010740002296
:1007410075F020800E75F010800575F0087D007E33
:10075100007F003392D530D503120875EC33401079
:10076100EF33FFEE33FEED33FDEC33FCD5F0ED223C
:0E077100E5F0247EA2D513CC92E7CDCEFF2278
:10077F00EDD2E7CD33EC3392D524814006E4FFFE72
:10078F00FDFC22FCE4CFCECDCC24E0501174FF80D1
:10079F00EDC3CC13CCCD13CDCE13CECF13CF04706E
:0707AF00F030D5DE020875F1
:1007B600E9D2E7C933E833F892D5EDD2E7CD33EC89
:0707C60033FC5002B2D52202
:1007CD00EC30E7100FBF000C0EBE00080DBD00048D
:1007DD000BEB6014A2D5EB13FCED92E7FD2274FF39
:1007ED00FCFDFEFF22E480F8A2D574FF13FC7D8092
:0307FD00E480EFA6
:03000000020A648D
:0C0A6400787FE4F6D8FD75813F020AABF4
:10080000BB010CE58229F582E5833AF583E02250AD
:1008100006E92582F8E622BBFE06E92582F8E222F7
:0D082000E58229F582E5833AF583E4932211
:10082D00BB010689828A83F0225002F722BBFE01AA
:02083D00F322A4
:10083F00C2D5EC30E709B2D5E4C39DFDE49CFCEED4
:10084F0030E715B2D5E4C39FFFE49EFE1208AFC395
:10085F00E49DFDE49CFC80031208AF30D507C3E490
:06086F009FFFE49EFE2243
:0E087500C3E49FFFE49EFEE49DFDE49CFC2294
:10088300E493FC740193FD740293FE740393FF22BB
:10089300E493F8740193F9740293FA740393FB22BB
:0C08A300ECF0A3EDF0A3EEF0A3EFF022C8
:100A7000020CD9E493A3F8E493A34003F68001F2B7
:100A800008DFF48029E493A3F85407240CC8C33387
:100A9000C4540F4420C8834004F456800146F6DF56
:100AA000E4800B0102040810204080900C30E47EAA
:100AB000019360BCA3FF543F30E509541FFEE4934B
:100AC000A360010ECF54C025E060A840B8E493A312
:100AD000FAE493A3F8E493A3C8C582C8CAC583CA3D
:100AE000F0A3C8C582C8CAC583CADFE9DEE780BEF5
:010C5600009D
:1008AF00BC000BBE0029EF8DF084FFADF022E4CC2D
:1008BF00F875F008EF2FFFEE33FEEC33FCEE9DECF6
:1008CF00984005FCEE9DFE0FD5F0E9E4CEFD22ED3C
:1008DF00F8F5F0EE8420D21CFEADF075F008EF2F86
:1008EF00FFED33FD4007985006D5F0F222C398FD77
:0508FF000FD5F0EA2214
:00000001FF
